{
  "_format": "hh-sol-artifact-1",
  "contractName": "CoreLoanPlatform",
  "sourceName": "contracts/CoreLoanPlatform.sol",
  "abi": [
    {
      "inputs": [
        {
          "internalType": "address",
          "name": "_USD",
          "type": "address"
        },
        {
          "internalType": "address",
          "name": "_BTC",
          "type": "address"
        }
      ],
      "stateMutability": "nonpayable",
      "type": "constructor"
    },
    {
      "inputs": [
        {
          "internalType": "address",
          "name": "target",
          "type": "address"
        }
      ],
      "name": "AddressEmptyCode",
      "type": "error"
    },
    {
      "inputs": [
        {
          "internalType": "address",
          "name": "account",
          "type": "address"
        }
      ],
      "name": "AddressInsufficientBalance",
      "type": "error"
    },
    {
      "inputs": [],
      "name": "FailedInnerCall",
      "type": "error"
    },
    {
      "inputs": [
        {
          "internalType": "address",
          "name": "owner",
          "type": "address"
        }
      ],
      "name": "OwnableInvalidOwner",
      "type": "error"
    },
    {
      "inputs": [
        {
          "internalType": "address",
          "name": "account",
          "type": "address"
        }
      ],
      "name": "OwnableUnauthorizedAccount",
      "type": "error"
    },
    {
      "inputs": [
        {
          "internalType": "address",
          "name": "token",
          "type": "address"
        }
      ],
      "name": "SafeERC20FailedOperation",
      "type": "error"
    },
    {
      "anonymous": false,
      "inputs": [
        {
          "indexed": true,
          "internalType": "address",
          "name": "user",
          "type": "address"
        },
        {
          "indexed": false,
          "internalType": "uint256",
          "name": "amount",
          "type": "uint256"
        }
      ],
      "name": "CollateralDeposited",
      "type": "event"
    },
    {
      "anonymous": false,
      "inputs": [
        {
          "indexed": true,
          "internalType": "address",
          "name": "user",
          "type": "address"
        },
        {
          "indexed": false,
          "internalType": "uint256",
          "name": "amount",
          "type": "uint256"
        }
      ],
      "name": "CollateralWithdrawn",
      "type": "event"
    },
    {
      "anonymous": false,
      "inputs": [
        {
          "indexed": true,
          "internalType": "address",
          "name": "lender",
          "type": "address"
        },
        {
          "indexed": false,
          "internalType": "uint256",
          "name": "amount",
          "type": "uint256"
        }
      ],
      "name": "CoreDeposited",
      "type": "event"
    },
    {
      "anonymous": false,
      "inputs": [
        {
          "indexed": true,
          "internalType": "address",
          "name": "lender",
          "type": "address"
        },
        {
          "indexed": false,
          "internalType": "uint256",
          "name": "amount",
          "type": "uint256"
        }
      ],
      "name": "CoreWithdrawn",
      "type": "event"
    },
    {
      "anonymous": false,
      "inputs": [
        {
          "indexed": true,
          "internalType": "address",
          "name": "borrower",
          "type": "address"
        },
        {
          "indexed": false,
          "internalType": "uint256",
          "name": "amount",
          "type": "uint256"
        },
        {
          "indexed": false,
          "internalType": "uint256",
          "name": "interest",
          "type": "uint256"
        }
      ],
      "name": "LoanRepaid",
      "type": "event"
    },
    {
      "anonymous": false,
      "inputs": [
        {
          "indexed": true,
          "internalType": "address",
          "name": "borrower",
          "type": "address"
        },
        {
          "indexed": false,
          "internalType": "uint256",
          "name": "amount",
          "type": "uint256"
        },
        {
          "indexed": false,
          "internalType": "uint256",
          "name": "collateral",
          "type": "uint256"
        }
      ],
      "name": "LoanTaken",
      "type": "event"
    },
    {
      "anonymous": false,
      "inputs": [
        {
          "indexed": true,
          "internalType": "address",
          "name": "previousOwner",
          "type": "address"
        },
        {
          "indexed": true,
          "internalType": "address",
          "name": "newOwner",
          "type": "address"
        }
      ],
      "name": "OwnershipTransferred",
      "type": "event"
    },
    {
      "inputs": [],
      "name": "BORROWABLE_RATIO",
      "outputs": [
        {
          "internalType": "uint256",
          "name": "",
          "type": "uint256"
        }
      ],
      "stateMutability": "view",
      "type": "function"
    },
    {
      "inputs": [],
      "name": "BTC",
      "outputs": [
        {
          "internalType": "contract IERC20",
          "name": "",
          "type": "address"
        }
      ],
      "stateMutability": "view",
      "type": "function"
    },
    {
      "inputs": [],
      "name": "COLLATERAL_RATIO",
      "outputs": [
        {
          "internalType": "uint256",
          "name": "",
          "type": "uint256"
        }
      ],
      "stateMutability": "view",
      "type": "function"
    },
    {
      "inputs": [],
      "name": "INTEREST_RATE",
      "outputs": [
        {
          "internalType": "uint256",
          "name": "",
          "type": "uint256"
        }
      ],
      "stateMutability": "view",
      "type": "function"
    },
    {
      "inputs": [],
      "name": "LOAN_DURATION",
      "outputs": [
        {
          "internalType": "uint256",
          "name": "",
          "type": "uint256"
        }
      ],
      "stateMutability": "view",
      "type": "function"
    },
    {
      "inputs": [],
      "name": "USD",
      "outputs": [
        {
          "internalType": "contract IERC20",
          "name": "",
          "type": "address"
        }
      ],
      "stateMutability": "view",
      "type": "function"
    },
    {
      "inputs": [
        {
          "internalType": "uint256",
          "name": "amount",
          "type": "uint256"
        }
      ],
      "name": "borrowCORE",
      "outputs": [],
      "stateMutability": "nonpayable",
      "type": "function"
    },
    {
      "inputs": [
        {
          "internalType": "uint256",
          "name": "amount",
          "type": "uint256"
        }
      ],
      "name": "depositCORE",
      "outputs": [],
      "stateMutability": "nonpayable",
      "type": "function"
    },
    {
      "inputs": [
        {
          "internalType": "uint256",
          "name": "amount",
          "type": "uint256"
        }
      ],
      "name": "depositCollateral",
      "outputs": [],
      "stateMutability": "nonpayable",
      "type": "function"
    },
    {
      "inputs": [
        {
          "internalType": "address",
          "name": "user",
          "type": "address"
        }
      ],
      "name": "getBorrowableAmount",
      "outputs": [
        {
          "internalType": "uint256",
          "name": "",
          "type": "uint256"
        }
      ],
      "stateMutability": "view",
      "type": "function"
    },
    {
      "inputs": [],
      "name": "getCurrentApy",
      "outputs": [
        {
          "internalType": "uint256",
          "name": "",
          "type": "uint256"
        }
      ],
      "stateMutability": "pure",
      "type": "function"
    },
    {
      "inputs": [
        {
          "internalType": "address",
          "name": "lender",
          "type": "address"
        }
      ],
      "name": "getLenderBalance",
      "outputs": [
        {
          "internalType": "uint256",
          "name": "",
          "type": "uint256"
        }
      ],
      "stateMutability": "view",
      "type": "function"
    },
    {
      "inputs": [
        {
          "internalType": "address",
          "name": "borrower",
          "type": "address"
        }
      ],
      "name": "getLoanDetails",
      "outputs": [
        {
          "components": [
            {
              "internalType": "uint256",
              "name": "amount",
              "type": "uint256"
            },
            {
              "internalType": "uint256",
              "name": "collateral",
              "type": "uint256"
            },
            {
              "internalType": "uint256",
              "name": "timestamp",
              "type": "uint256"
            },
            {
              "internalType": "bool",
              "name": "active",
              "type": "bool"
            }
          ],
          "internalType": "struct CoreLoanPlatform.Loan",
          "name": "",
          "type": "tuple"
        }
      ],
      "stateMutability": "view",
      "type": "function"
    },
    {
      "inputs": [],
      "name": "getTotalBorrowed",
      "outputs": [
        {
          "internalType": "uint256",
          "name": "",
          "type": "uint256"
        }
      ],
      "stateMutability": "view",
      "type": "function"
    },
    {
      "inputs": [],
      "name": "getTotalStaked",
      "outputs": [
        {
          "internalType": "uint256",
          "name": "",
          "type": "uint256"
        }
      ],
      "stateMutability": "view",
      "type": "function"
    },
    {
      "inputs": [
        {
          "internalType": "address",
          "name": "user",
          "type": "address"
        }
      ],
      "name": "getUserBorrowed",
      "outputs": [
        {
          "internalType": "uint256",
          "name": "",
          "type": "uint256"
        }
      ],
      "stateMutability": "view",
      "type": "function"
    },
    {
      "inputs": [
        {
          "internalType": "address",
          "name": "user",
          "type": "address"
        }
      ],
      "name": "getUserCollateral",
      "outputs": [
        {
          "internalType": "uint256",
          "name": "",
          "type": "uint256"
        }
      ],
      "stateMutability": "view",
      "type": "function"
    },
    {
      "inputs": [
        {
          "internalType": "address",
          "name": "user",
          "type": "address"
        }
      ],
      "name": "getUserStaked",
      "outputs": [
        {
          "internalType": "uint256",
          "name": "",
          "type": "uint256"
        }
      ],
      "stateMutability": "view",
      "type": "function"
    },
    {
      "inputs": [
        {
          "internalType": "address",
          "name": "",
          "type": "address"
        }
      ],
      "name": "lenderBalances",
      "outputs": [
        {
          "internalType": "uint256",
          "name": "",
          "type": "uint256"
        }
      ],
      "stateMutability": "view",
      "type": "function"
    },
    {
      "inputs": [
        {
          "internalType": "address",
          "name": "",
          "type": "address"
        }
      ],
      "name": "loans",
      "outputs": [
        {
          "internalType": "uint256",
          "name": "amount",
          "type": "uint256"
        },
        {
          "internalType": "uint256",
          "name": "collateral",
          "type": "uint256"
        },
        {
          "internalType": "uint256",
          "name": "timestamp",
          "type": "uint256"
        },
        {
          "internalType": "bool",
          "name": "active",
          "type": "bool"
        }
      ],
      "stateMutability": "view",
      "type": "function"
    },
    {
      "inputs": [],
      "name": "owner",
      "outputs": [
        {
          "internalType": "address",
          "name": "",
          "type": "address"
        }
      ],
      "stateMutability": "view",
      "type": "function"
    },
    {
      "inputs": [],
      "name": "renounceOwnership",
      "outputs": [],
      "stateMutability": "nonpayable",
      "type": "function"
    },
    {
      "inputs": [],
      "name": "repayLoan",
      "outputs": [],
      "stateMutability": "nonpayable",
      "type": "function"
    },
    {
      "inputs": [
        {
          "internalType": "address",
          "name": "newOwner",
          "type": "address"
        }
      ],
      "name": "transferOwnership",
      "outputs": [],
      "stateMutability": "nonpayable",
      "type": "function"
    },
    {
      "inputs": [
        {
          "internalType": "address",
          "name": "",
          "type": "address"
        }
      ],
      "name": "userCollateral",
      "outputs": [
        {
          "internalType": "uint256",
          "name": "",
          "type": "uint256"
        }
      ],
      "stateMutability": "view",
      "type": "function"
    },
    {
      "inputs": [
        {
          "internalType": "uint256",
          "name": "amount",
          "type": "uint256"
        }
      ],
      "name": "withdrawCORE",
      "outputs": [],
      "stateMutability": "nonpayable",
      "type": "function"
    },
    {
      "inputs": [
        {
          "internalType": "uint256",
          "name": "amount",
          "type": "uint256"
        }
      ],
      "name": "withdrawCollateral",
      "outputs": [],
      "stateMutability": "nonpayable",
      "type": "function"
    }
  ],
  "bytecode": "0x60c0604052600060015560006002553480156200001b57600080fd5b506040516200165a3803806200165a8339810160408190526200003e9162000166565b33806200006657604051631e4fbdf760e01b8152600060048201526024015b60405180910390fd5b6200007181620000f9565b506001600160a01b038216158015906200009357506001600160a01b03811615155b620000e15760405162461bcd60e51b815260206004820152601760248201527f496e76616c696420746f6b656e2061646472657373657300000000000000000060448201526064016200005d565b6001600160a01b039182166080521660a0526200019e565b600080546001600160a01b038381166001600160a01b0319831681178455604051919092169283917f8be0079c531659141344cd1fd0a4f28419497f9722a3daafe3b4186f6b6457e09190a35050565b80516001600160a01b03811681146200016157600080fd5b919050565b600080604083850312156200017a57600080fd5b620001858362000149565b9150620001956020840162000149565b90509250929050565b60805160a051611465620001f560003960008181610221015281816106780152818161079e01528181610b6e01528181610d060152610f2a0152600081816101e2015281816109d80152610c2b01526114656000f3fe608060405234801561001057600080fd5b50600436106101b95760003560e01c8063a27a944d116100f9578063e02a4dfd11610097578063f2fde38b11610071578063f2fde38b14610431578063f4925de514610444578063f69f1e4a1461044b578063f966ade71461046b57600080fd5b8063e02a4dfd146103b6578063e86ef40b146103c0578063e8a7da8e146103e957600080fd5b8063bd09085a116100d3578063bd09085a14610372578063caec25291461039b578063d9e69a05146103ae578063dac3fc3f1461037257600080fd5b8063a27a944d14610316578063b6f7132f14610336578063bad4a01f1461035f57600080fd5b80636112fe2e11610166578063715018a611610140578063715018a61461028e57806373b4086b146102965780638a7130a0146102f25780638da5cb5b1461030557600080fd5b80636112fe2e14610260578063691d1eb3146102735780636e35f1241461028657600080fd5b80632792949d116101975780632792949d1461021c57806333813002146102435780635b72a33a1461025857600080fd5b80630307c4a1146101be5780630917e776146101d55780631bf6c21b146101dd575b600080fd5b6002545b6040519081526020015b60405180910390f35b6001546101c2565b6102047f000000000000000000000000000000000000000000000000000000000000000081565b6040516001600160a01b0390911681526020016101cc565b6102047f000000000000000000000000000000000000000000000000000000000000000081565b61025661025136600461130e565b610473565b005b6101c2600581565b61025661026e36600461130e565b610816565b6101c2610281366004611327565b610a31565b6101c2605081565b610256610a69565b6102d06102a4366004611327565b600360208190526000918252604090912080546001820154600283015492909301549092919060ff1684565b60408051948552602085019390935291830152151560608201526080016101cc565b61025661030036600461130e565b610a7d565b6000546001600160a01b0316610204565b6101c2610324366004611327565b60056020526000908152604090205481565b6101c2610344366004611327565b6001600160a01b031660009081526004602052604090205490565b61025661036d36600461130e565b610bce565b6101c2610380366004611327565b6001600160a01b031660009081526005602052604090205490565b6102566103a936600461130e565b610ca9565b6101c2609681565b6101c262278d0081565b6101c26103ce366004611327565b6001600160a01b031660009081526003602052604090205490565b6103fc6103f7366004611327565b610d95565b6040516101cc919081518152602080830151908201526040808301519082015260609182015115159181019190915260800190565b61025661043f366004611327565b610e12565b60056101c2565b6101c2610459366004611327565b60046020526000908152604090205481565b610256610e69565b600081116104c85760405162461bcd60e51b815260206004820152601d60248201527f416d6f756e74206d7573742062652067726561746572207468616e203000000060448201526064015b60405180910390fd5b336000908152600360208190526040909120015460ff16156105525760405162461bcd60e51b815260206004820152602260248201527f4578697374696e67206c6f616e206d757374206265207265706169642066697260448201527f737400000000000000000000000000000000000000000000000000000000000060648201526084016104bf565b60006064610561609684611366565b61056b919061137d565b336000908152600460205260409020549091508111156105cd5760405162461bcd60e51b815260206004820152601760248201527f496e73756666696369656e7420636f6c6c61746572616c00000000000000000060448201526064016104bf565b336000908152600460205260408120546064906105ec90605090611366565b6105f6919061137d565b9050808311156106485760405162461bcd60e51b815260206004820152601b60248201527f426f72726f7720616d6f756e742065786365656473206c696d6974000000000060448201526064016104bf565b6040517f70a0823100000000000000000000000000000000000000000000000000000000815230600482015283907f00000000000000000000000000000000000000000000000000000000000000006001600160a01b0316906370a0823190602401602060405180830381865afa1580156106c7573d6000803e3d6000fd5b505050506040513d601f19601f820116820180604052508101906106eb919061139f565b10156107395760405162461bcd60e51b815260206004820152601c60248201527f496e73756666696369656e742042544320696e20636f6e74726163740000000060448201526064016104bf565b604080516080810182528481526020808201858152428385019081526001606085018181523360008181526003968790529790972095518655925190850155516002840155519101805460ff19169115159190911790556107c5906001600160a01b037f0000000000000000000000000000000000000000000000000000000000000000169085610faa565b826002546107d391906113b8565b600255604080518481526020810184905233917e6b9bb4766cf5ab74b890df959e4fad0e54b1c3885e49c9541d36253a6e39e691015b60405180910390a2505050565b600081116108665760405162461bcd60e51b815260206004820152601d60248201527f416d6f756e74206d7573742062652067726561746572207468616e203000000060448201526064016104bf565b336000908152600460205260409020548111156108c55760405162461bcd60e51b815260206004820152601760248201527f496e73756666696369656e7420636f6c6c61746572616c00000000000000000060448201526064016104bf565b3360009081526003602081905260408220015460ff166108e65760006108f7565b336000908152600360205260409020545b905060006064610908609684611366565b610912919061137d565b3360009081526004602052604090205490915081906109329085906113cb565b10156109a65760405162461bcd60e51b815260206004820152602860248201527f5769746864726177616c20776f756c6420756e646572636f6c6c61746572616c60448201527f697a65206c6f616e00000000000000000000000000000000000000000000000060648201526084016104bf565b33600090815260046020526040812080548592906109c59084906113cb565b909155506109ff90506001600160a01b037f0000000000000000000000000000000000000000000000000000000000000000163385610faa565b60405183815233907fc30fcfbcaac9e0deffa719714eaa82396ff506a0d0d0eebe170830177288715d90602001610809565b6001600160a01b038116600090815260046020526040812054606490610a5990605090611366565b610a63919061137d565b92915050565b610a71611023565b610a7b6000611069565b565b60008111610acd5760405162461bcd60e51b815260206004820152601d60248201527f416d6f756e74206d7573742062652067726561746572207468616e203000000060448201526064016104bf565b33600090815260056020526040902054811115610b2c5760405162461bcd60e51b815260206004820152601460248201527f496e73756666696369656e742062616c616e636500000000000000000000000060448201526064016104bf565b3360009081526005602052604081208054839290610b4b9084906113cb565b9091555050600154610b5e9082906113cb565b600155610b956001600160a01b037f0000000000000000000000000000000000000000000000000000000000000000163383610faa565b60405181815233907f649da164477c349fb84729301ef2305a006a7c6f044f4c44f87bfe6b703cd939906020015b60405180910390a250565b60008111610c1e5760405162461bcd60e51b815260206004820152601d60248201527f416d6f756e74206d7573742062652067726561746572207468616e203000000060448201526064016104bf565b610c536001600160a01b037f0000000000000000000000000000000000000000000000000000000000000000163330846110d1565b3360009081526004602052604081208054839290610c729084906113b8565b909155505060405181815233907fd7243f6f8212d5188fd054141cf6ea89cfc0d91facb8c3afe2f88a135848014290602001610bc3565b60008111610cf95760405162461bcd60e51b815260206004820152601d60248201527f416d6f756e74206d7573742062652067726561746572207468616e203000000060448201526064016104bf565b610d2e6001600160a01b037f0000000000000000000000000000000000000000000000000000000000000000163330846110d1565b3360009081526005602052604081208054839290610d4d9084906113b8565b9091555050600154610d609082906113b8565b60015560405181815233907fff3fe0a44f246a23658d2648f39518abaf32391025fc3bb3c92e107b6dfa83d190602001610bc3565b610dc260405180608001604052806000815260200160008152602001600081526020016000151581525090565b506001600160a01b031660009081526003602081815260409283902083516080810185528154815260018201549281019290925260028101549382019390935291015460ff161515606082015290565b610e1a611023565b6001600160a01b038116610e5d576040517f1e4fbdf7000000000000000000000000000000000000000000000000000000008152600060048201526024016104bf565b610e6681611069565b50565b3360009081526003602081905260409091209081015460ff16610ece5760405162461bcd60e51b815260206004820152600e60248201527f4e6f20616374697665206c6f616e00000000000000000000000000000000000060448201526064016104bf565b600063bbf81e00826002015442610ee591906113cb565b8354610ef390600590611366565b610efd9190611366565b610f07919061137d565b90506000818360000154610f1b91906113b8565b9050610f526001600160a01b037f0000000000000000000000000000000000000000000000000000000000000000163330846110d1565b60038301805460ff191690558254600254610f6d91906113cb565b6002558254604080519182526020820184905233917fc7ce0a35f17b490de2a317e7fecb2cae86b1abffb03800b2f4928235213826989101610809565b6040516001600160a01b0383811660248301526044820183905261101e91859182169063a9059cbb906064015b604051602081830303815290604052915060e01b6020820180517bffffffffffffffffffffffffffffffffffffffffffffffffffffffff8381831617835250505050611110565b505050565b6000546001600160a01b03163314610a7b576040517f118cdaa70000000000000000000000000000000000000000000000000000000081523360048201526024016104bf565b600080546001600160a01b038381167fffffffffffffffffffffffff0000000000000000000000000000000000000000831681178455604051919092169283917f8be0079c531659141344cd1fd0a4f28419497f9722a3daafe3b4186f6b6457e09190a35050565b6040516001600160a01b03848116602483015283811660448301526064820183905261110a9186918216906323b872dd90608401610fd7565b50505050565b60006111256001600160a01b0384168361118c565b9050805160001415801561114a57508080602001905181019061114891906113de565b155b1561101e576040517f5274afe70000000000000000000000000000000000000000000000000000000081526001600160a01b03841660048201526024016104bf565b606061119a838360006111a1565b9392505050565b6060814710156111df576040517fcd7860590000000000000000000000000000000000000000000000000000000081523060048201526024016104bf565b600080856001600160a01b031684866040516111fb9190611400565b60006040518083038185875af1925050503d8060008114611238576040519150601f19603f3d011682016040523d82523d6000602084013e61123d565b606091505b509150915061124d868383611257565b9695505050505050565b60608261126c57611267826112cc565b61119a565b815115801561128357506001600160a01b0384163b155b156112c5576040517f9996b3150000000000000000000000000000000000000000000000000000000081526001600160a01b03851660048201526024016104bf565b508061119a565b8051156112dc5780518082602001fd5b6040517f1425ea4200000000000000000000000000000000000000000000000000000000815260040160405180910390fd5b60006020828403121561132057600080fd5b5035919050565b60006020828403121561133957600080fd5b81356001600160a01b038116811461119a57600080fd5b634e487b7160e01b600052601160045260246000fd5b8082028115828204841417610a6357610a63611350565b60008261139a57634e487b7160e01b600052601260045260246000fd5b500490565b6000602082840312156113b157600080fd5b5051919050565b80820180821115610a6357610a63611350565b81810381811115610a6357610a63611350565b6000602082840312156113f057600080fd5b8151801515811461119a57600080fd5b6000825160005b818110156114215760208186018101518583015201611407565b50600092019182525091905056fea26469706673582212204d5c358a013fe6e748e1ba1f8ea8468066ade2984b34079e663f37214850789064736f6c63430008180033",
  "linkReferences": {},
  "deployedLinkReferences": {}
}