{
  "_format": "hh-sol-artifact-1",
  "contractName": "CoreLoanPlatform",
  "sourceName": "contracts/CoreLoanPlatform.sol",
  "abi": [
    {
      "inputs": [
        {
          "internalType": "address",
          "name": "_USD",
          "type": "address"
        },
        {
          "internalType": "address",
          "name": "_BTC",
          "type": "address"
        }
      ],
      "stateMutability": "nonpayable",
      "type": "constructor"
    },
    {
      "inputs": [
        {
          "internalType": "address",
          "name": "target",
          "type": "address"
        }
      ],
      "name": "AddressEmptyCode",
      "type": "error"
    },
    {
      "inputs": [
        {
          "internalType": "address",
          "name": "account",
          "type": "address"
        }
      ],
      "name": "AddressInsufficientBalance",
      "type": "error"
    },
    {
      "inputs": [],
      "name": "FailedInnerCall",
      "type": "error"
    },
    {
      "inputs": [
        {
          "internalType": "address",
          "name": "owner",
          "type": "address"
        }
      ],
      "name": "OwnableInvalidOwner",
      "type": "error"
    },
    {
      "inputs": [
        {
          "internalType": "address",
          "name": "account",
          "type": "address"
        }
      ],
      "name": "OwnableUnauthorizedAccount",
      "type": "error"
    },
    {
      "inputs": [
        {
          "internalType": "address",
          "name": "token",
          "type": "address"
        }
      ],
      "name": "SafeERC20FailedOperation",
      "type": "error"
    },
    {
      "anonymous": false,
      "inputs": [
        {
          "indexed": true,
          "internalType": "address",
          "name": "lender",
          "type": "address"
        },
        {
          "indexed": false,
          "internalType": "uint256",
          "name": "amount",
          "type": "uint256"
        }
      ],
      "name": "BTCDeposited",
      "type": "event"
    },
    {
      "anonymous": false,
      "inputs": [
        {
          "indexed": true,
          "internalType": "address",
          "name": "lender",
          "type": "address"
        },
        {
          "indexed": false,
          "internalType": "uint256",
          "name": "amount",
          "type": "uint256"
        }
      ],
      "name": "BTCWithdrawn",
      "type": "event"
    },
    {
      "anonymous": false,
      "inputs": [
        {
          "indexed": true,
          "internalType": "address",
          "name": "user",
          "type": "address"
        },
        {
          "indexed": false,
          "internalType": "uint256",
          "name": "amount",
          "type": "uint256"
        }
      ],
      "name": "CollateralDeposited",
      "type": "event"
    },
    {
      "anonymous": false,
      "inputs": [
        {
          "indexed": true,
          "internalType": "address",
          "name": "user",
          "type": "address"
        },
        {
          "indexed": false,
          "internalType": "uint256",
          "name": "amount",
          "type": "uint256"
        }
      ],
      "name": "CollateralWithdrawn",
      "type": "event"
    },
    {
      "anonymous": false,
      "inputs": [
        {
          "indexed": true,
          "internalType": "address",
          "name": "borrower",
          "type": "address"
        },
        {
          "indexed": false,
          "internalType": "uint256",
          "name": "amount",
          "type": "uint256"
        },
        {
          "indexed": false,
          "internalType": "uint256",
          "name": "interest",
          "type": "uint256"
        }
      ],
      "name": "LoanRepaid",
      "type": "event"
    },
    {
      "anonymous": false,
      "inputs": [
        {
          "indexed": true,
          "internalType": "address",
          "name": "borrower",
          "type": "address"
        },
        {
          "indexed": false,
          "internalType": "uint256",
          "name": "amount",
          "type": "uint256"
        },
        {
          "indexed": false,
          "internalType": "uint256",
          "name": "collateral",
          "type": "uint256"
        }
      ],
      "name": "LoanTaken",
      "type": "event"
    },
    {
      "anonymous": false,
      "inputs": [
        {
          "indexed": true,
          "internalType": "address",
          "name": "previousOwner",
          "type": "address"
        },
        {
          "indexed": true,
          "internalType": "address",
          "name": "newOwner",
          "type": "address"
        }
      ],
      "name": "OwnershipTransferred",
      "type": "event"
    },
    {
      "inputs": [],
      "name": "BORROWABLE_RATIO",
      "outputs": [
        {
          "internalType": "uint256",
          "name": "",
          "type": "uint256"
        }
      ],
      "stateMutability": "view",
      "type": "function"
    },
    {
      "inputs": [],
      "name": "BTC",
      "outputs": [
        {
          "internalType": "contract IERC20",
          "name": "",
          "type": "address"
        }
      ],
      "stateMutability": "view",
      "type": "function"
    },
    {
      "inputs": [],
      "name": "COLLATERAL_RATIO",
      "outputs": [
        {
          "internalType": "uint256",
          "name": "",
          "type": "uint256"
        }
      ],
      "stateMutability": "view",
      "type": "function"
    },
    {
      "inputs": [],
      "name": "INTEREST_RATE",
      "outputs": [
        {
          "internalType": "uint256",
          "name": "",
          "type": "uint256"
        }
      ],
      "stateMutability": "view",
      "type": "function"
    },
    {
      "inputs": [],
      "name": "LOAN_DURATION",
      "outputs": [
        {
          "internalType": "uint256",
          "name": "",
          "type": "uint256"
        }
      ],
      "stateMutability": "view",
      "type": "function"
    },
    {
      "inputs": [],
      "name": "USD",
      "outputs": [
        {
          "internalType": "contract IERC20",
          "name": "",
          "type": "address"
        }
      ],
      "stateMutability": "view",
      "type": "function"
    },
    {
      "inputs": [
        {
          "internalType": "uint256",
          "name": "amount",
          "type": "uint256"
        }
      ],
      "name": "borrowBTC",
      "outputs": [],
      "stateMutability": "nonpayable",
      "type": "function"
    },
    {
      "inputs": [
        {
          "internalType": "uint256",
          "name": "amount",
          "type": "uint256"
        }
      ],
      "name": "depositBTC",
      "outputs": [],
      "stateMutability": "nonpayable",
      "type": "function"
    },
    {
      "inputs": [
        {
          "internalType": "uint256",
          "name": "amount",
          "type": "uint256"
        }
      ],
      "name": "depositCollateral",
      "outputs": [],
      "stateMutability": "nonpayable",
      "type": "function"
    },
    {
      "inputs": [
        {
          "internalType": "address",
          "name": "user",
          "type": "address"
        }
      ],
      "name": "getBorrowableAmount",
      "outputs": [
        {
          "internalType": "uint256",
          "name": "",
          "type": "uint256"
        }
      ],
      "stateMutability": "view",
      "type": "function"
    },
    {
      "inputs": [],
      "name": "getCurrentApy",
      "outputs": [
        {
          "internalType": "uint256",
          "name": "",
          "type": "uint256"
        }
      ],
      "stateMutability": "pure",
      "type": "function"
    },
    {
      "inputs": [
        {
          "internalType": "address",
          "name": "lender",
          "type": "address"
        }
      ],
      "name": "getLenderBalance",
      "outputs": [
        {
          "internalType": "uint256",
          "name": "",
          "type": "uint256"
        }
      ],
      "stateMutability": "view",
      "type": "function"
    },
    {
      "inputs": [
        {
          "internalType": "address",
          "name": "borrower",
          "type": "address"
        }
      ],
      "name": "getLoanDetails",
      "outputs": [
        {
          "components": [
            {
              "internalType": "uint256",
              "name": "amount",
              "type": "uint256"
            },
            {
              "internalType": "uint256",
              "name": "collateral",
              "type": "uint256"
            },
            {
              "internalType": "uint256",
              "name": "timestamp",
              "type": "uint256"
            },
            {
              "internalType": "bool",
              "name": "active",
              "type": "bool"
            }
          ],
          "internalType": "struct CoreLoanPlatform.Loan",
          "name": "",
          "type": "tuple"
        }
      ],
      "stateMutability": "view",
      "type": "function"
    },
    {
      "inputs": [],
      "name": "getTotalBorrowed",
      "outputs": [
        {
          "internalType": "uint256",
          "name": "",
          "type": "uint256"
        }
      ],
      "stateMutability": "view",
      "type": "function"
    },
    {
      "inputs": [],
      "name": "getTotalStaked",
      "outputs": [
        {
          "internalType": "uint256",
          "name": "",
          "type": "uint256"
        }
      ],
      "stateMutability": "view",
      "type": "function"
    },
    {
      "inputs": [
        {
          "internalType": "address",
          "name": "user",
          "type": "address"
        }
      ],
      "name": "getUserBorrowed",
      "outputs": [
        {
          "internalType": "uint256",
          "name": "",
          "type": "uint256"
        }
      ],
      "stateMutability": "view",
      "type": "function"
    },
    {
      "inputs": [
        {
          "internalType": "address",
          "name": "user",
          "type": "address"
        }
      ],
      "name": "getUserCollateral",
      "outputs": [
        {
          "internalType": "uint256",
          "name": "",
          "type": "uint256"
        }
      ],
      "stateMutability": "view",
      "type": "function"
    },
    {
      "inputs": [
        {
          "internalType": "address",
          "name": "user",
          "type": "address"
        }
      ],
      "name": "getUserStaked",
      "outputs": [
        {
          "internalType": "uint256",
          "name": "",
          "type": "uint256"
        }
      ],
      "stateMutability": "view",
      "type": "function"
    },
    {
      "inputs": [
        {
          "internalType": "address",
          "name": "",
          "type": "address"
        }
      ],
      "name": "lenderBalances",
      "outputs": [
        {
          "internalType": "uint256",
          "name": "",
          "type": "uint256"
        }
      ],
      "stateMutability": "view",
      "type": "function"
    },
    {
      "inputs": [
        {
          "internalType": "address",
          "name": "",
          "type": "address"
        }
      ],
      "name": "loans",
      "outputs": [
        {
          "internalType": "uint256",
          "name": "amount",
          "type": "uint256"
        },
        {
          "internalType": "uint256",
          "name": "collateral",
          "type": "uint256"
        },
        {
          "internalType": "uint256",
          "name": "timestamp",
          "type": "uint256"
        },
        {
          "internalType": "bool",
          "name": "active",
          "type": "bool"
        }
      ],
      "stateMutability": "view",
      "type": "function"
    },
    {
      "inputs": [],
      "name": "owner",
      "outputs": [
        {
          "internalType": "address",
          "name": "",
          "type": "address"
        }
      ],
      "stateMutability": "view",
      "type": "function"
    },
    {
      "inputs": [],
      "name": "renounceOwnership",
      "outputs": [],
      "stateMutability": "nonpayable",
      "type": "function"
    },
    {
      "inputs": [],
      "name": "repayLoan",
      "outputs": [],
      "stateMutability": "nonpayable",
      "type": "function"
    },
    {
      "inputs": [
        {
          "internalType": "address",
          "name": "newOwner",
          "type": "address"
        }
      ],
      "name": "transferOwnership",
      "outputs": [],
      "stateMutability": "nonpayable",
      "type": "function"
    },
    {
      "inputs": [
        {
          "internalType": "address",
          "name": "",
          "type": "address"
        }
      ],
      "name": "userCollateral",
      "outputs": [
        {
          "internalType": "uint256",
          "name": "",
          "type": "uint256"
        }
      ],
      "stateMutability": "view",
      "type": "function"
    },
    {
      "inputs": [
        {
          "internalType": "uint256",
          "name": "amount",
          "type": "uint256"
        }
      ],
      "name": "withdrawBTC",
      "outputs": [],
      "stateMutability": "nonpayable",
      "type": "function"
    },
    {
      "inputs": [
        {
          "internalType": "uint256",
          "name": "amount",
          "type": "uint256"
        }
      ],
      "name": "withdrawCollateral",
      "outputs": [],
      "stateMutability": "nonpayable",
      "type": "function"
    }
  ],
  "bytecode": "0x60c0604052600060015560006002553480156200001b57600080fd5b5060405162001659380380620016598339810160408190526200003e9162000166565b33806200006657604051631e4fbdf760e01b8152600060048201526024015b60405180910390fd5b6200007181620000f9565b506001600160a01b038216158015906200009357506001600160a01b03811615155b620000e15760405162461bcd60e51b815260206004820152601760248201527f496e76616c696420746f6b656e2061646472657373657300000000000000000060448201526064016200005d565b6001600160a01b039182166080521660a0526200019e565b600080546001600160a01b038381166001600160a01b0319831681178455604051919092169283917f8be0079c531659141344cd1fd0a4f28419497f9722a3daafe3b4186f6b6457e09190a35050565b80516001600160a01b03811681146200016157600080fd5b919050565b600080604083850312156200017a57600080fd5b620001858362000149565b9150620001956020840162000149565b90509250929050565b60805160a051611464620001f560003960008181610221015281816107d90152818161089601528181610bff01528181610d250152610f290152600081816101e20152818161063a015261098101526114646000f3fe608060405234801561001057600080fd5b50600436106101b95760003560e01c8063a6b6d798116100f9578063e02a4dfd11610097578063f2fde38b11610071578063f2fde38b14610431578063f4925de514610444578063f69f1e4a1461044b578063f966ade71461046b57600080fd5b8063e02a4dfd146103b6578063e86ef40b146103c0578063e8a7da8e146103e957600080fd5b8063bd09085a116100d3578063bd09085a14610372578063d1a405641461039b578063d9e69a05146103ae578063dac3fc3f1461037257600080fd5b8063a6b6d79814610323578063b6f7132f14610336578063bad4a01f1461035f57600080fd5b8063691d1eb31161016657806373b4086b1161014057806373b4086b146102835780638da5cb5b146102df57806390b4588b146102f0578063a27a944d1461030357600080fd5b8063691d1eb3146102605780636e35f12414610273578063715018a61461027b57600080fd5b80632792949d116101975780632792949d1461021c5780635b72a33a146102435780636112fe2e1461024b57600080fd5b80630307c4a1146101be5780630917e776146101d55780631bf6c21b146101dd575b600080fd5b6002545b6040519081526020015b60405180910390f35b6001546101c2565b6102047f000000000000000000000000000000000000000000000000000000000000000081565b6040516001600160a01b0390911681526020016101cc565b6102047f000000000000000000000000000000000000000000000000000000000000000081565b6101c2600581565b61025e61025936600461130d565b610473565b005b6101c261026e366004611326565b61069c565b6101c2605081565b61025e6106d4565b6102bd610291366004611326565b600360208190526000918252604090912080546001820154600283015492909301549092919060ff1684565b60408051948552602085019390935291830152151560608201526080016101cc565b6000546001600160a01b0316610204565b61025e6102fe36600461130d565b6106e8565b6101c2610311366004611326565b60056020526000908152604090205481565b61025e61033136600461130d565b610839565b6101c2610344366004611326565b6001600160a01b031660009081526004602052604090205490565b61025e61036d36600461130d565b610924565b6101c2610380366004611326565b6001600160a01b031660009081526005602052604090205490565b61025e6103a936600461130d565b6109ff565b6101c2609681565b6101c262278d0081565b6101c26103ce366004611326565b6001600160a01b031660009081526003602052604090205490565b6103fc6103f7366004611326565b610d94565b6040516101cc919081518152602080830151908201526040808301519082015260609182015115159181019190915260800190565b61025e61043f366004611326565b610e11565b60056101c2565b6101c2610459366004611326565b60046020526000908152604090205481565b61025e610e68565b600081116104c85760405162461bcd60e51b815260206004820152601d60248201527f416d6f756e74206d7573742062652067726561746572207468616e203000000060448201526064015b60405180910390fd5b336000908152600460205260409020548111156105275760405162461bcd60e51b815260206004820152601760248201527f496e73756666696369656e7420636f6c6c61746572616c00000000000000000060448201526064016104bf565b3360009081526003602081905260408220015460ff16610548576000610559565b336000908152600360205260409020545b90506000606461056a609684611365565b610574919061137c565b33600090815260046020526040902054909150819061059490859061139e565b10156106085760405162461bcd60e51b815260206004820152602860248201527f5769746864726177616c20776f756c6420756e646572636f6c6c61746572616c60448201527f697a65206c6f616e00000000000000000000000000000000000000000000000060648201526084016104bf565b336000908152600460205260408120805485929061062790849061139e565b9091555061066190506001600160a01b037f0000000000000000000000000000000000000000000000000000000000000000163385610fa9565b60405183815233907fc30fcfbcaac9e0deffa719714eaa82396ff506a0d0d0eebe170830177288715d906020015b60405180910390a2505050565b6001600160a01b0381166000908152600460205260408120546064906106c490605090611365565b6106ce919061137c565b92915050565b6106dc611022565b6106e66000611068565b565b600081116107385760405162461bcd60e51b815260206004820152601d60248201527f416d6f756e74206d7573742062652067726561746572207468616e203000000060448201526064016104bf565b336000908152600560205260409020548111156107975760405162461bcd60e51b815260206004820152601460248201527f496e73756666696369656e742062616c616e636500000000000000000000000060448201526064016104bf565b33600090815260056020526040812080548392906107b690849061139e565b90915550506001546107c990829061139e565b6001556108006001600160a01b037f0000000000000000000000000000000000000000000000000000000000000000163383610fa9565b60405181815233907f46cb947848d6e66f42fd865aff4e0b9765da557ed05874db5a3c931ccea58ef1906020015b60405180910390a250565b600081116108895760405162461bcd60e51b815260206004820152601d60248201527f416d6f756e74206d7573742062652067726561746572207468616e203000000060448201526064016104bf565b6108be6001600160a01b037f0000000000000000000000000000000000000000000000000000000000000000163330846110d0565b33600090815260056020526040812080548392906108dd9084906113b1565b90915550506001546108f09082906113b1565b60015560405181815233907ec876900062bf6768530bd9be84c146f5c051f4a50a5bf7fbcdd9ed4c8fb1549060200161082e565b600081116109745760405162461bcd60e51b815260206004820152601d60248201527f416d6f756e74206d7573742062652067726561746572207468616e203000000060448201526064016104bf565b6109a96001600160a01b037f0000000000000000000000000000000000000000000000000000000000000000163330846110d0565b33600090815260046020526040812080548392906109c89084906113b1565b909155505060405181815233907fd7243f6f8212d5188fd054141cf6ea89cfc0d91facb8c3afe2f88a13584801429060200161082e565b60008111610a4f5760405162461bcd60e51b815260206004820152601d60248201527f416d6f756e74206d7573742062652067726561746572207468616e203000000060448201526064016104bf565b336000908152600360208190526040909120015460ff1615610ad95760405162461bcd60e51b815260206004820152602260248201527f4578697374696e67206c6f616e206d757374206265207265706169642066697260448201527f737400000000000000000000000000000000000000000000000000000000000060648201526084016104bf565b60006064610ae8609684611365565b610af2919061137c565b33600090815260046020526040902054909150811115610b545760405162461bcd60e51b815260206004820152601760248201527f496e73756666696369656e7420636f6c6c61746572616c00000000000000000060448201526064016104bf565b33600090815260046020526040812054606490610b7390605090611365565b610b7d919061137c565b905080831115610bcf5760405162461bcd60e51b815260206004820152601b60248201527f426f72726f7720616d6f756e742065786365656473206c696d6974000000000060448201526064016104bf565b6040517f70a0823100000000000000000000000000000000000000000000000000000000815230600482015283907f00000000000000000000000000000000000000000000000000000000000000006001600160a01b0316906370a0823190602401602060405180830381865afa158015610c4e573d6000803e3d6000fd5b505050506040513d601f19601f82011682018060405250810190610c7291906113c4565b1015610cc05760405162461bcd60e51b815260206004820152601c60248201527f496e73756666696369656e742042544320696e20636f6e74726163740000000060448201526064016104bf565b604080516080810182528481526020808201858152428385019081526001606085018181523360008181526003968790529790972095518655925190850155516002840155519101805460ff1916911515919091179055610d4c906001600160a01b037f0000000000000000000000000000000000000000000000000000000000000000169085610fa9565b82600254610d5a91906113b1565b600255604080518481526020810184905233917e6b9bb4766cf5ab74b890df959e4fad0e54b1c3885e49c9541d36253a6e39e6910161068f565b610dc160405180608001604052806000815260200160008152602001600081526020016000151581525090565b506001600160a01b031660009081526003602081815260409283902083516080810185528154815260018201549281019290925260028101549382019390935291015460ff161515606082015290565b610e19611022565b6001600160a01b038116610e5c576040517f1e4fbdf7000000000000000000000000000000000000000000000000000000008152600060048201526024016104bf565b610e6581611068565b50565b3360009081526003602081905260409091209081015460ff16610ecd5760405162461bcd60e51b815260206004820152600e60248201527f4e6f20616374697665206c6f616e00000000000000000000000000000000000060448201526064016104bf565b600063bbf81e00826002015442610ee4919061139e565b8354610ef290600590611365565b610efc9190611365565b610f06919061137c565b90506000818360000154610f1a91906113b1565b9050610f516001600160a01b037f0000000000000000000000000000000000000000000000000000000000000000163330846110d0565b60038301805460ff191690558254600254610f6c919061139e565b6002558254604080519182526020820184905233917fc7ce0a35f17b490de2a317e7fecb2cae86b1abffb03800b2f492823521382698910161068f565b6040516001600160a01b0383811660248301526044820183905261101d91859182169063a9059cbb906064015b604051602081830303815290604052915060e01b6020820180517bffffffffffffffffffffffffffffffffffffffffffffffffffffffff838183161783525050505061110f565b505050565b6000546001600160a01b031633146106e6576040517f118cdaa70000000000000000000000000000000000000000000000000000000081523360048201526024016104bf565b600080546001600160a01b038381167fffffffffffffffffffffffff0000000000000000000000000000000000000000831681178455604051919092169283917f8be0079c531659141344cd1fd0a4f28419497f9722a3daafe3b4186f6b6457e09190a35050565b6040516001600160a01b0384811660248301528381166044830152606482018390526111099186918216906323b872dd90608401610fd6565b50505050565b60006111246001600160a01b0384168361118b565b9050805160001415801561114957508080602001905181019061114791906113dd565b155b1561101d576040517f5274afe70000000000000000000000000000000000000000000000000000000081526001600160a01b03841660048201526024016104bf565b6060611199838360006111a0565b9392505050565b6060814710156111de576040517fcd7860590000000000000000000000000000000000000000000000000000000081523060048201526024016104bf565b600080856001600160a01b031684866040516111fa91906113ff565b60006040518083038185875af1925050503d8060008114611237576040519150601f19603f3d011682016040523d82523d6000602084013e61123c565b606091505b509150915061124c868383611256565b9695505050505050565b60608261126b57611266826112cb565b611199565b815115801561128257506001600160a01b0384163b155b156112c4576040517f9996b3150000000000000000000000000000000000000000000000000000000081526001600160a01b03851660048201526024016104bf565b5080611199565b8051156112db5780518082602001fd5b6040517f1425ea4200000000000000000000000000000000000000000000000000000000815260040160405180910390fd5b60006020828403121561131f57600080fd5b5035919050565b60006020828403121561133857600080fd5b81356001600160a01b038116811461119957600080fd5b634e487b7160e01b600052601160045260246000fd5b80820281158282048414176106ce576106ce61134f565b60008261139957634e487b7160e01b600052601260045260246000fd5b500490565b818103818111156106ce576106ce61134f565b808201808211156106ce576106ce61134f565b6000602082840312156113d657600080fd5b5051919050565b6000602082840312156113ef57600080fd5b8151801515811461119957600080fd5b6000825160005b818110156114205760208186018101518583015201611406565b50600092019182525091905056fea264697066735822122095fd2fc830e80ea7f953cbea3b515b35afac805e8c897bfe48cc8c1b81c643bd64736f6c63430008180033",
  "linkReferences": {},
  "deployedLinkReferences": {}
}